{
  "_format": "hh-sol-artifact-1",
  "contractName": "CourseCertificate",
  "sourceName": "contracts/CourseCertificate.sol",
  "abi": [
    {
      "inputs": [
        {
          "internalType": "address",
          "name": "initialOwner",
          "type": "address"
        }
      ],
      "stateMutability": "nonpayable",
      "type": "constructor"
    },
    {
      "inputs": [
        {
          "internalType": "address",
          "name": "sender",
          "type": "address"
        },
        {
          "internalType": "uint256",
          "name": "tokenId",
          "type": "uint256"
        },
        {
          "internalType": "address",
          "name": "owner",
          "type": "address"
        }
      ],
      "name": "ERC721IncorrectOwner",
      "type": "error"
    },
    {
      "inputs": [
        {
          "internalType": "address",
          "name": "operator",
          "type": "address"
        },
        {
          "internalType": "uint256",
          "name": "tokenId",
          "type": "uint256"
        }
      ],
      "name": "ERC721InsufficientApproval",
      "type": "error"
    },
    {
      "inputs": [
        {
          "internalType": "address",
          "name": "approver",
          "type": "address"
        }
      ],
      "name": "ERC721InvalidApprover",
      "type": "error"
    },
    {
      "inputs": [
        {
          "internalType": "address",
          "name": "operator",
          "type": "address"
        }
      ],
      "name": "ERC721InvalidOperator",
      "type": "error"
    },
    {
      "inputs": [
        {
          "internalType": "address",
          "name": "owner",
          "type": "address"
        }
      ],
      "name": "ERC721InvalidOwner",
      "type": "error"
    },
    {
      "inputs": [
        {
          "internalType": "address",
          "name": "receiver",
          "type": "address"
        }
      ],
      "name": "ERC721InvalidReceiver",
      "type": "error"
    },
    {
      "inputs": [
        {
          "internalType": "address",
          "name": "sender",
          "type": "address"
        }
      ],
      "name": "ERC721InvalidSender",
      "type": "error"
    },
    {
      "inputs": [
        {
          "internalType": "uint256",
          "name": "tokenId",
          "type": "uint256"
        }
      ],
      "name": "ERC721NonexistentToken",
      "type": "error"
    },
    {
      "inputs": [
        {
          "internalType": "address",
          "name": "owner",
          "type": "address"
        }
      ],
      "name": "OwnableInvalidOwner",
      "type": "error"
    },
    {
      "inputs": [
        {
          "internalType": "address",
          "name": "account",
          "type": "address"
        }
      ],
      "name": "OwnableUnauthorizedAccount",
      "type": "error"
    },
    {
      "anonymous": false,
      "inputs": [
        {
          "indexed": true,
          "internalType": "address",
          "name": "owner",
          "type": "address"
        },
        {
          "indexed": true,
          "internalType": "address",
          "name": "approved",
          "type": "address"
        },
        {
          "indexed": true,
          "internalType": "uint256",
          "name": "tokenId",
          "type": "uint256"
        }
      ],
      "name": "Approval",
      "type": "event"
    },
    {
      "anonymous": false,
      "inputs": [
        {
          "indexed": true,
          "internalType": "address",
          "name": "owner",
          "type": "address"
        },
        {
          "indexed": true,
          "internalType": "address",
          "name": "operator",
          "type": "address"
        },
        {
          "indexed": false,
          "internalType": "bool",
          "name": "approved",
          "type": "bool"
        }
      ],
      "name": "ApprovalForAll",
      "type": "event"
    },
    {
      "anonymous": false,
      "inputs": [
        {
          "indexed": true,
          "internalType": "address",
          "name": "student",
          "type": "address"
        },
        {
          "indexed": false,
          "internalType": "string",
          "name": "courseId",
          "type": "string"
        },
        {
          "indexed": false,
          "internalType": "uint256",
          "name": "tokenId",
          "type": "uint256"
        }
      ],
      "name": "CertificateIssued",
      "type": "event"
    },
    {
      "anonymous": false,
      "inputs": [
        {
          "indexed": true,
          "internalType": "address",
          "name": "minter",
          "type": "address"
        }
      ],
      "name": "MinterUpdated",
      "type": "event"
    },
    {
      "anonymous": false,
      "inputs": [
        {
          "indexed": true,
          "internalType": "address",
          "name": "previousOwner",
          "type": "address"
        },
        {
          "indexed": true,
          "internalType": "address",
          "name": "newOwner",
          "type": "address"
        }
      ],
      "name": "OwnershipTransferred",
      "type": "event"
    },
    {
      "anonymous": false,
      "inputs": [
        {
          "indexed": true,
          "internalType": "address",
          "name": "from",
          "type": "address"
        },
        {
          "indexed": true,
          "internalType": "address",
          "name": "to",
          "type": "address"
        },
        {
          "indexed": true,
          "internalType": "uint256",
          "name": "tokenId",
          "type": "uint256"
        }
      ],
      "name": "Transfer",
      "type": "event"
    },
    {
      "inputs": [
        {
          "internalType": "address",
          "name": "to",
          "type": "address"
        },
        {
          "internalType": "uint256",
          "name": "tokenId",
          "type": "uint256"
        }
      ],
      "name": "approve",
      "outputs": [],
      "stateMutability": "nonpayable",
      "type": "function"
    },
    {
      "inputs": [
        {
          "internalType": "address",
          "name": "owner",
          "type": "address"
        }
      ],
      "name": "balanceOf",
      "outputs": [
        {
          "internalType": "uint256",
          "name": "",
          "type": "uint256"
        }
      ],
      "stateMutability": "view",
      "type": "function"
    },
    {
      "inputs": [
        {
          "internalType": "uint256",
          "name": "tokenId",
          "type": "uint256"
        }
      ],
      "name": "certificateData",
      "outputs": [
        {
          "components": [
            {
              "internalType": "string",
              "name": "courseId",
              "type": "string"
            },
            {
              "internalType": "uint256",
              "name": "issuedAt",
              "type": "uint256"
            }
          ],
          "internalType": "struct CourseCertificate.CertificateData",
          "name": "",
          "type": "tuple"
        }
      ],
      "stateMutability": "view",
      "type": "function"
    },
    {
      "inputs": [
        {
          "internalType": "uint256",
          "name": "tokenId",
          "type": "uint256"
        }
      ],
      "name": "getApproved",
      "outputs": [
        {
          "internalType": "address",
          "name": "",
          "type": "address"
        }
      ],
      "stateMutability": "view",
      "type": "function"
    },
    {
      "inputs": [
        {
          "internalType": "address",
          "name": "owner",
          "type": "address"
        },
        {
          "internalType": "address",
          "name": "operator",
          "type": "address"
        }
      ],
      "name": "isApprovedForAll",
      "outputs": [
        {
          "internalType": "bool",
          "name": "",
          "type": "bool"
        }
      ],
      "stateMutability": "view",
      "type": "function"
    },
    {
      "inputs": [
        {
          "internalType": "address",
          "name": "to",
          "type": "address"
        },
        {
          "internalType": "string",
          "name": "courseId",
          "type": "string"
        }
      ],
      "name": "mintCertificate",
      "outputs": [
        {
          "internalType": "uint256",
          "name": "",
          "type": "uint256"
        }
      ],
      "stateMutability": "nonpayable",
      "type": "function"
    },
    {
      "inputs": [],
      "name": "minter",
      "outputs": [
        {
          "internalType": "address",
          "name": "",
          "type": "address"
        }
      ],
      "stateMutability": "view",
      "type": "function"
    },
    {
      "inputs": [],
      "name": "name",
      "outputs": [
        {
          "internalType": "string",
          "name": "",
          "type": "string"
        }
      ],
      "stateMutability": "view",
      "type": "function"
    },
    {
      "inputs": [],
      "name": "nextTokenId",
      "outputs": [
        {
          "internalType": "uint256",
          "name": "",
          "type": "uint256"
        }
      ],
      "stateMutability": "view",
      "type": "function"
    },
    {
      "inputs": [],
      "name": "owner",
      "outputs": [
        {
          "internalType": "address",
          "name": "",
          "type": "address"
        }
      ],
      "stateMutability": "view",
      "type": "function"
    },
    {
      "inputs": [
        {
          "internalType": "uint256",
          "name": "tokenId",
          "type": "uint256"
        }
      ],
      "name": "ownerOf",
      "outputs": [
        {
          "internalType": "address",
          "name": "",
          "type": "address"
        }
      ],
      "stateMutability": "view",
      "type": "function"
    },
    {
      "inputs": [],
      "name": "renounceOwnership",
      "outputs": [],
      "stateMutability": "nonpayable",
      "type": "function"
    },
    {
      "inputs": [
        {
          "internalType": "address",
          "name": "from",
          "type": "address"
        },
        {
          "internalType": "address",
          "name": "to",
          "type": "address"
        },
        {
          "internalType": "uint256",
          "name": "tokenId",
          "type": "uint256"
        }
      ],
      "name": "safeTransferFrom",
      "outputs": [],
      "stateMutability": "nonpayable",
      "type": "function"
    },
    {
      "inputs": [
        {
          "internalType": "address",
          "name": "from",
          "type": "address"
        },
        {
          "internalType": "address",
          "name": "to",
          "type": "address"
        },
        {
          "internalType": "uint256",
          "name": "tokenId",
          "type": "uint256"
        },
        {
          "internalType": "bytes",
          "name": "data",
          "type": "bytes"
        }
      ],
      "name": "safeTransferFrom",
      "outputs": [],
      "stateMutability": "nonpayable",
      "type": "function"
    },
    {
      "inputs": [
        {
          "internalType": "address",
          "name": "operator",
          "type": "address"
        },
        {
          "internalType": "bool",
          "name": "approved",
          "type": "bool"
        }
      ],
      "name": "setApprovalForAll",
      "outputs": [],
      "stateMutability": "nonpayable",
      "type": "function"
    },
    {
      "inputs": [
        {
          "internalType": "address",
          "name": "newMinter",
          "type": "address"
        }
      ],
      "name": "setMinter",
      "outputs": [],
      "stateMutability": "nonpayable",
      "type": "function"
    },
    {
      "inputs": [
        {
          "internalType": "bytes4",
          "name": "interfaceId",
          "type": "bytes4"
        }
      ],
      "name": "supportsInterface",
      "outputs": [
        {
          "internalType": "bool",
          "name": "",
          "type": "bool"
        }
      ],
      "stateMutability": "view",
      "type": "function"
    },
    {
      "inputs": [],
      "name": "symbol",
      "outputs": [
        {
          "internalType": "string",
          "name": "",
          "type": "string"
        }
      ],
      "stateMutability": "view",
      "type": "function"
    },
    {
      "inputs": [
        {
          "internalType": "uint256",
          "name": "tokenId",
          "type": "uint256"
        }
      ],
      "name": "tokenURI",
      "outputs": [
        {
          "internalType": "string",
          "name": "",
          "type": "string"
        }
      ],
      "stateMutability": "view",
      "type": "function"
    },
    {
      "inputs": [
        {
          "internalType": "address",
          "name": "from",
          "type": "address"
        },
        {
          "internalType": "address",
          "name": "to",
          "type": "address"
        },
        {
          "internalType": "uint256",
          "name": "tokenId",
          "type": "uint256"
        }
      ],
      "name": "transferFrom",
      "outputs": [],
      "stateMutability": "nonpayable",
      "type": "function"
    },
    {
      "inputs": [
        {
          "internalType": "address",
          "name": "newOwner",
          "type": "address"
        }
      ],
      "name": "transferOwnership",
      "outputs": [],
      "stateMutability": "nonpayable",
      "type": "function"
    }
  ],
  "bytecode": "0x60806040523480156200001157600080fd5b506040516200198338038062001983833981016040819052620000349162000143565b806040518060400160405280601781526020017f5765623320436f757273652043657274696669636174650000000000000000008152506040518060400160405280600381526020016257334360e81b81525081600090816200009891906200021a565b506001620000a782826200021a565b5050506001600160a01b038116620000d957604051631e4fbdf760e01b81526000600482015260240160405180910390fd5b620000e481620000f1565b50506001600855620002e6565b600680546001600160a01b038381166001600160a01b0319831681179093556040519116919082907f8be0079c531659141344cd1fd0a4f28419497f9722a3daafe3b4186f6b6457e090600090a35050565b6000602082840312156200015657600080fd5b81516001600160a01b03811681146200016e57600080fd5b9392505050565b634e487b7160e01b600052604160045260246000fd5b600181811c90821680620001a057607f821691505b602082108103620001c157634e487b7160e01b600052602260045260246000fd5b50919050565b601f8211156200021557600081815260208120601f850160051c81016020861015620001f05750805b601f850160051c820191505b818110156200021157828155600101620001fc565b5050505b505050565b81516001600160401b0381111562000236576200023662000175565b6200024e816200024784546200018b565b84620001c7565b602080601f8311600181146200028657600084156200026d5750858301515b600019600386901b1c1916600185901b17855562000211565b600085815260208120601f198616915b82811015620002b75788860151825594840194600190910190840162000296565b5085821015620002d65787850151600019600388901b60f8161c191681555b5050505050600190811b01905550565b61168d80620002f66000396000f3fe608060405234801561001057600080fd5b50600436106101375760003560e01c8063715018a6116100b8578063a22cb4651161007c578063a22cb46514610283578063b88d4fde14610296578063c87b56dd146102a9578063e985e9c5146102bc578063f2fde38b146102cf578063fca3b5aa146102e257600080fd5b8063715018a61461023957806375794a3c146102415780638024818a1461024a5780638da5cb5b1461026a57806395d89b411461027b57600080fd5b8063095ea7b3116100ff578063095ea7b3146101d857806323b872dd146101ed57806342842e0e146102005780636352211e1461021357806370a082311461022657600080fd5b806301ffc9a71461013c57806306fdde03146101645780630712249f14610179578063075461721461019a578063081812fc146101c5575b600080fd5b61014f61014a3660046110e2565b6102f5565b60405190151581526020015b60405180910390f35b61016c610347565b60405161015b919061114f565b61018c61018736600461117e565b6103d9565b60405190815260200161015b565b6007546101ad906001600160a01b031681565b6040516001600160a01b03909116815260200161015b565b6101ad6101d3366004611201565b610525565b6101eb6101e636600461121a565b61054e565b005b6101eb6101fb366004611244565b61055d565b6101eb61020e366004611244565b6105e8565b6101ad610221366004611201565b610608565b61018c610234366004611280565b610613565b6101eb61065b565b61018c60085481565b61025d610258366004611201565b61066f565b60405161015b919061129b565b6006546001600160a01b03166101ad565b61016c6107ad565b6101eb6102913660046112cd565b6107bc565b6101eb6102a436600461131f565b6107c7565b61016c6102b7366004611201565b6107df565b61014f6102ca3660046113fb565b610854565b6101eb6102dd366004611280565b610882565b6101eb6102f0366004611280565b6108c0565b60006001600160e01b031982166380ac58cd60e01b148061032657506001600160e01b03198216635b5e139f60e01b145b8061034157506301ffc9a760e01b6001600160e01b03198316145b92915050565b6060600080546103569061142e565b80601f01602080910402602001604051908101604052809291908181526020018280546103829061142e565b80156103cf5780601f106103a4576101008083540402835291602001916103cf565b820191906000526020600020905b8154815290600101906020018083116103b257829003601f168201915b5050505050905090565b6007546000906001600160a01b0316331461044b5760405162461bcd60e51b815260206004820152602760248201527f436f7572736543657274696669636174653a2063616c6c6572206973206e6f746044820152661036b4b73a32b960c91b60648201526084015b60405180910390fd5b600880546000918261045c83611468565b91905055905061046c8582610972565b6040805160606020601f87018190040282018101835291810185815290918291908790879081908501838280828437600092018290525093855250504260209384015250838152600990915260409020815181906104ca90826114d5565b5060208201518160010155905050846001600160a01b03167f7cfe81bfb9e8d3dcb7ad648448aa616885521676a3e99ed538a415d60e19a47985858460405161051593929190611595565b60405180910390a2949350505050565b60006105308261098c565b506000828152600460205260409020546001600160a01b0316610341565b6105598282336109c5565b5050565b6001600160a01b03821661058757604051633250574960e11b815260006004820152602401610442565b60006105948383336109d2565b9050836001600160a01b0316816001600160a01b0316146105e2576040516364283d7b60e01b81526001600160a01b0380861660048301526024820184905282166044820152606401610442565b50505050565b610603838383604051806020016040528060008152506107c7565b505050565b60006103418261098c565b60006001600160a01b03821661063f576040516322718ad960e21b815260006004820152602401610442565b506001600160a01b031660009081526003602052604090205490565b610663610acb565b61066d6000610af8565b565b60408051808201825260608152600060208083018290528482526002905291909120546001600160a01b03166106f35760405162461bcd60e51b8152602060048201526024808201527f436f7572736543657274696669636174653a206e6f6e6578697374656e74207460448201526337b5b2b760e11b6064820152608401610442565b60008281526009602052604090819020815180830190925280548290829061071a9061142e565b80601f01602080910402602001604051908101604052809291908181526020018280546107469061142e565b80156107935780601f1061076857610100808354040283529160200191610793565b820191906000526020600020905b81548152906001019060200180831161077657829003601f168201915b505050505081526020016001820154815250509050919050565b6060600180546103569061142e565b610559338383610b4a565b6107d284848461055d565b6105e23385858585610be9565b60606107ea8261098c565b50600061080260408051602081019091526000815290565b90506000815111610822576040518060200160405280600081525061084d565b8061082c84610d14565b60405160200161083d9291906115ce565b6040516020818303038152906040525b9392505050565b6001600160a01b03918216600090815260056020908152604080832093909416825291909152205460ff1690565b61088a610acb565b6001600160a01b0381166108b457604051631e4fbdf760e01b815260006004820152602401610442565b6108bd81610af8565b50565b6108c8610acb565b6001600160a01b0381166109285760405162461bcd60e51b815260206004820152602160248201527f436f7572736543657274696669636174653a206d696e746572206973207a65726044820152606f60f81b6064820152608401610442565b600780546001600160a01b0319166001600160a01b0383169081179091556040517fad0f299ec81a386c98df0ac27dae11dd020ed1b56963c53a7292e7a3a314539a90600090a250565b610559828260405180602001604052806000815250610da7565b6000818152600260205260408120546001600160a01b03168061034157604051637e27328960e01b815260048101849052602401610442565b6106038383836001610dbf565b6000828152600260205260408120546001600160a01b03908116908316156109ff576109ff818486610ec5565b6001600160a01b03811615610a3d57610a1c600085600080610dbf565b6001600160a01b038116600090815260036020526040902080546000190190555b6001600160a01b03851615610a6c576001600160a01b0385166000908152600360205260409020805460010190555b60008481526002602052604080822080546001600160a01b0319166001600160a01b0389811691821790925591518793918516917fddf252ad1be2c89b69c2b068fc378daa952ba7f163c4a11628f55a4df523b3ef91a4949350505050565b6006546001600160a01b0316331461066d5760405163118cdaa760e01b8152336004820152602401610442565b600680546001600160a01b038381166001600160a01b0319831681179093556040519116919082907f8be0079c531659141344cd1fd0a4f28419497f9722a3daafe3b4186f6b6457e090600090a35050565b6001600160a01b038216610b7c57604051630b61174360e31b81526001600160a01b0383166004820152602401610442565b6001600160a01b03838116600081815260056020908152604080832094871680845294825291829020805460ff191686151590811790915591519182527f17307eab39ab6107e8899845ad3d59bd9653f200f220920489ca2b5937696c31910160405180910390a3505050565b6001600160a01b0383163b15610d0d57604051630a85bd0160e11b81526001600160a01b0384169063150b7a0290610c2b9088908890879087906004016115fd565b6020604051808303816000875af1925050508015610c66575060408051601f3d908101601f19168201909252610c639181019061163a565b60015b610ccf573d808015610c94576040519150601f19603f3d011682016040523d82523d6000602084013e610c99565b606091505b508051600003610cc757604051633250574960e11b81526001600160a01b0385166004820152602401610442565b805160208201fd5b6001600160e01b03198116630a85bd0160e11b14610d0b57604051633250574960e11b81526001600160a01b0385166004820152602401610442565b505b5050505050565b60606000610d2183610f29565b600101905060008167ffffffffffffffff811115610d4157610d41611309565b6040519080825280601f01601f191660200182016040528015610d6b576020820181803683370190505b5090508181016020015b600019016f181899199a1a9b1b9c1cb0b131b232b360811b600a86061a8153600a8504945084610d7557509392505050565b610db18383611001565b610603336000858585610be9565b8080610dd357506001600160a01b03821615155b15610e95576000610de38461098c565b90506001600160a01b03831615801590610e0f5750826001600160a01b0316816001600160a01b031614155b8015610e225750610e208184610854565b155b15610e4b5760405163a9fbf51f60e01b81526001600160a01b0384166004820152602401610442565b8115610e935783856001600160a01b0316826001600160a01b03167f8c5be1e5ebec7d5bd14f71427d1e84f3dd0314c0f7b2291e5b200ac8c7c3b92560405160405180910390a45b505b5050600090815260046020526040902080546001600160a01b0319166001600160a01b0392909216919091179055565b610ed0838383611066565b610603576001600160a01b038316610efe57604051637e27328960e01b815260048101829052602401610442565b60405163177e802f60e01b81526001600160a01b038316600482015260248101829052604401610442565b60008072184f03e93ff9f4daa797ed6e38ed64bf6a1f0160401b8310610f685772184f03e93ff9f4daa797ed6e38ed64bf6a1f0160401b830492506040015b6d04ee2d6d415b85acef81000000008310610f94576d04ee2d6d415b85acef8100000000830492506020015b662386f26fc100008310610fb257662386f26fc10000830492506010015b6305f5e1008310610fca576305f5e100830492506008015b6127108310610fde57612710830492506004015b60648310610ff0576064830492506002015b600a83106103415760010192915050565b6001600160a01b03821661102b57604051633250574960e11b815260006004820152602401610442565b6000611039838360006109d2565b90506001600160a01b03811615610603576040516339e3563760e11b815260006004820152602401610442565b60006001600160a01b038316158015906110c45750826001600160a01b0316846001600160a01b031614806110a057506110a08484610854565b806110c457506000828152600460205260409020546001600160a01b038481169116145b949350505050565b6001600160e01b0319811681146108bd57600080fd5b6000602082840312156110f457600080fd5b813561084d816110cc565b60005b8381101561111a578181015183820152602001611102565b50506000910152565b6000815180845261113b8160208601602086016110ff565b601f01601f19169290920160200192915050565b60208152600061084d6020830184611123565b80356001600160a01b038116811461117957600080fd5b919050565b60008060006040848603121561119357600080fd5b61119c84611162565b9250602084013567ffffffffffffffff808211156111b957600080fd5b818601915086601f8301126111cd57600080fd5b8135818111156111dc57600080fd5b8760208285010111156111ee57600080fd5b6020830194508093505050509250925092565b60006020828403121561121357600080fd5b5035919050565b6000806040838503121561122d57600080fd5b61123683611162565b946020939093013593505050565b60008060006060848603121561125957600080fd5b61126284611162565b925061127060208501611162565b9150604084013590509250925092565b60006020828403121561129257600080fd5b61084d82611162565b6020815260008251604060208401526112b76060840182611123565b9050602084015160408401528091505092915050565b600080604083850312156112e057600080fd5b6112e983611162565b9150602083013580151581146112fe57600080fd5b809150509250929050565b634e487b7160e01b600052604160045260246000fd5b6000806000806080858703121561133557600080fd5b61133e85611162565b935061134c60208601611162565b925060408501359150606085013567ffffffffffffffff8082111561137057600080fd5b818701915087601f83011261138457600080fd5b81358181111561139657611396611309565b604051601f8201601f19908116603f011681019083821181831017156113be576113be611309565b816040528281528a60208487010111156113d757600080fd5b82602086016020830137600060208483010152809550505050505092959194509250565b6000806040838503121561140e57600080fd5b61141783611162565b915061142560208401611162565b90509250929050565b600181811c9082168061144257607f821691505b60208210810361146257634e487b7160e01b600052602260045260246000fd5b50919050565b60006001820161148857634e487b7160e01b600052601160045260246000fd5b5060010190565b601f82111561060357600081815260208120601f850160051c810160208610156114b65750805b601f850160051c820191505b81811015610d0b578281556001016114c2565b815167ffffffffffffffff8111156114ef576114ef611309565b611503816114fd845461142e565b8461148f565b602080601f83116001811461153857600084156115205750858301515b600019600386901b1c1916600185901b178555610d0b565b600085815260208120601f198616915b8281101561156757888601518255948401946001909101908401611548565b50858210156115855787850151600019600388901b60f8161c191681555b5050505050600190811b01905550565b604081528260408201528284606083013760006060848301015260006060601f19601f8601168301019050826020830152949350505050565b600083516115e08184602088016110ff565b8351908301906115f48183602088016110ff565b01949350505050565b6001600160a01b038581168252841660208201526040810183905260806060820181905260009061163090830184611123565b9695505050505050565b60006020828403121561164c57600080fd5b815161084d816110cc56fea26469706673582212204e1c584bd4a1ed8e547685a9b99a90b2db7e03cf21e120ebf9d7917e5bcf6e0164736f6c63430008140033",
  "linkReferences": {},
  "deployedLinkReferences": {}
}