{
  "_format": "hh-sol-artifact-1",
  "contractName": "Courses",
  "sourceName": "contracts/Courses.sol",
  "abi": [
    {
      "inputs": [
        {
          "internalType": "address",
          "name": "tokenAddress",
          "type": "address"
        },
        {
          "internalType": "address",
          "name": "certificateAddress",
          "type": "address"
        },
        {
          "internalType": "address",
          "name": "initialOwner",
          "type": "address"
        },
        {
          "internalType": "address",
          "name": "initialFeeRecipient",
          "type": "address"
        },
        {
          "internalType": "uint256",
          "name": "initialFeeBps",
          "type": "uint256"
        }
      ],
      "stateMutability": "nonpayable",
      "type": "constructor"
    },
    {
      "inputs": [
        {
          "internalType": "address",
          "name": "owner",
          "type": "address"
        }
      ],
      "name": "OwnableInvalidOwner",
      "type": "error"
    },
    {
      "inputs": [
        {
          "internalType": "address",
          "name": "account",
          "type": "address"
        }
      ],
      "name": "OwnableUnauthorizedAccount",
      "type": "error"
    },
    {
      "inputs": [
        {
          "internalType": "address",
          "name": "token",
          "type": "address"
        }
      ],
      "name": "SafeERC20FailedOperation",
      "type": "error"
    },
    {
      "anonymous": false,
      "inputs": [
        {
          "indexed": true,
          "internalType": "address",
          "name": "certificate",
          "type": "address"
        }
      ],
      "name": "CertificateUpdated",
      "type": "event"
    },
    {
      "anonymous": false,
      "inputs": [
        {
          "indexed": false,
          "internalType": "string",
          "name": "courseId",
          "type": "string"
        },
        {
          "indexed": true,
          "internalType": "address",
          "name": "author",
          "type": "address"
        },
        {
          "indexed": false,
          "internalType": "uint256",
          "name": "price",
          "type": "uint256"
        }
      ],
      "name": "CourseCreated",
      "type": "event"
    },
    {
      "anonymous": false,
      "inputs": [
        {
          "indexed": false,
          "internalType": "string",
          "name": "courseId",
          "type": "string"
        },
        {
          "indexed": true,
          "internalType": "address",
          "name": "student",
          "type": "address"
        },
        {
          "indexed": false,
          "internalType": "uint256",
          "name": "price",
          "type": "uint256"
        },
        {
          "indexed": false,
          "internalType": "uint256",
          "name": "fee",
          "type": "uint256"
        }
      ],
      "name": "CoursePurchased",
      "type": "event"
    },
    {
      "anonymous": false,
      "inputs": [
        {
          "indexed": true,
          "internalType": "address",
          "name": "feeRecipient",
          "type": "address"
        }
      ],
      "name": "FeeRecipientUpdated",
      "type": "event"
    },
    {
      "anonymous": false,
      "inputs": [
        {
          "indexed": true,
          "internalType": "address",
          "name": "previousOwner",
          "type": "address"
        },
        {
          "indexed": true,
          "internalType": "address",
          "name": "newOwner",
          "type": "address"
        }
      ],
      "name": "OwnershipTransferred",
      "type": "event"
    },
    {
      "anonymous": false,
      "inputs": [
        {
          "indexed": false,
          "internalType": "uint256",
          "name": "feeBps",
          "type": "uint256"
        }
      ],
      "name": "PlatformFeeUpdated",
      "type": "event"
    },
    {
      "inputs": [
        {
          "internalType": "string",
          "name": "courseId",
          "type": "string"
        }
      ],
      "name": "buyCourse",
      "outputs": [],
      "stateMutability": "nonpayable",
      "type": "function"
    },
    {
      "inputs": [],
      "name": "certificate",
      "outputs": [
        {
          "internalType": "contract ICourseCertificate",
          "name": "",
          "type": "address"
        }
      ],
      "stateMutability": "view",
      "type": "function"
    },
    {
      "inputs": [
        {
          "internalType": "string",
          "name": "courseId",
          "type": "string"
        }
      ],
      "name": "courseInfo",
      "outputs": [
        {
          "components": [
            {
              "internalType": "address",
              "name": "author",
              "type": "address"
            },
            {
              "internalType": "uint256",
              "name": "price",
              "type": "uint256"
            },
            {
              "internalType": "bool",
              "name": "exists",
              "type": "bool"
            }
          ],
          "internalType": "struct Courses.Course",
          "name": "",
          "type": "tuple"
        }
      ],
      "stateMutability": "view",
      "type": "function"
    },
    {
      "inputs": [
        {
          "internalType": "string",
          "name": "courseId",
          "type": "string"
        },
        {
          "internalType": "uint256",
          "name": "price",
          "type": "uint256"
        },
        {
          "internalType": "address",
          "name": "author",
          "type": "address"
        }
      ],
      "name": "createCourse",
      "outputs": [],
      "stateMutability": "nonpayable",
      "type": "function"
    },
    {
      "inputs": [],
      "name": "feeRecipient",
      "outputs": [
        {
          "internalType": "address",
          "name": "",
          "type": "address"
        }
      ],
      "stateMutability": "view",
      "type": "function"
    },
    {
      "inputs": [
        {
          "internalType": "string",
          "name": "courseId",
          "type": "string"
        },
        {
          "internalType": "address",
          "name": "student",
          "type": "address"
        }
      ],
      "name": "hasPurchased",
      "outputs": [
        {
          "internalType": "bool",
          "name": "",
          "type": "bool"
        }
      ],
      "stateMutability": "view",
      "type": "function"
    },
    {
      "inputs": [],
      "name": "owner",
      "outputs": [
        {
          "internalType": "address",
          "name": "",
          "type": "address"
        }
      ],
      "stateMutability": "view",
      "type": "function"
    },
    {
      "inputs": [],
      "name": "platformFeeBps",
      "outputs": [
        {
          "internalType": "uint256",
          "name": "",
          "type": "uint256"
        }
      ],
      "stateMutability": "view",
      "type": "function"
    },
    {
      "inputs": [],
      "name": "renounceOwnership",
      "outputs": [],
      "stateMutability": "nonpayable",
      "type": "function"
    },
    {
      "inputs": [
        {
          "internalType": "address",
          "name": "newCertificate",
          "type": "address"
        }
      ],
      "name": "setCertificate",
      "outputs": [],
      "stateMutability": "nonpayable",
      "type": "function"
    },
    {
      "inputs": [
        {
          "internalType": "address",
          "name": "newRecipient",
          "type": "address"
        }
      ],
      "name": "setFeeRecipient",
      "outputs": [],
      "stateMutability": "nonpayable",
      "type": "function"
    },
    {
      "inputs": [
        {
          "internalType": "uint256",
          "name": "newFeeBps",
          "type": "uint256"
        }
      ],
      "name": "setPlatformFeeBps",
      "outputs": [],
      "stateMutability": "nonpayable",
      "type": "function"
    },
    {
      "inputs": [
        {
          "internalType": "address",
          "name": "newOwner",
          "type": "address"
        }
      ],
      "name": "transferOwnership",
      "outputs": [],
      "stateMutability": "nonpayable",
      "type": "function"
    },
    {
      "inputs": [],
      "name": "ydToken",
      "outputs": [
        {
          "internalType": "contract IERC20",
          "name": "",
          "type": "address"
        }
      ],
      "stateMutability": "view",
      "type": "function"
    }
  ],
  "bytecode": "0x60a06040523480156200001157600080fd5b506040516200110138038062001101833981016040819052620000349162000220565b826001600160a01b0381166200006557604051631e4fbdf760e01b8152600060048201526024015b60405180910390fd5b6200007081620001b3565b506001600160a01b038516620000c95760405162461bcd60e51b815260206004820152601660248201527f436f75727365733a20746f6b656e206973207a65726f0000000000000000000060448201526064016200005c565b6001600160a01b038216620001215760405162461bcd60e51b815260206004820152601e60248201527f436f75727365733a2066656520726563697069656e74206973207a65726f000060448201526064016200005c565b6103e8811115620001755760405162461bcd60e51b815260206004820152601560248201527f436f75727365733a2066656520746f6f2068696768000000000000000000000060448201526064016200005c565b6001600160a01b03948516608052600180549486166001600160a01b0319958616179055600380549290951691909316179092556002555062000287565b600080546001600160a01b038381166001600160a01b0319831681178455604051919092169283917f8be0079c531659141344cd1fd0a4f28419497f9722a3daafe3b4186f6b6457e09190a35050565b80516001600160a01b03811681146200021b57600080fd5b919050565b600080600080600060a086880312156200023957600080fd5b620002448662000203565b9450620002546020870162000203565b9350620002646040870162000203565b9250620002746060870162000203565b9150608086015190509295509295909350565b608051610e50620002b1600039600081816101df015281816103cf015261040a0152610e506000f3fe608060405234801561001057600080fd5b50600436106100ea5760003560e01c80638da5cb5b1161008c578063c580c94211610066578063c580c94214610214578063e74b981b14610227578063e834fff21461023a578063f2fde38b1461024d57600080fd5b80638da5cb5b146101c9578063b9c5c022146101da578063c2489f181461020157600080fd5b80632dc6a5b8116100c85780632dc6a5b81461014b578063469048401461016e578063715018a61461018157806387a90f931461018957600080fd5b806322dcd13e146100ef578063298f32671461010b5780632dbf7b9814610120575b600080fd5b6100f860025481565b6040519081526020015b60405180910390f35b61011e610119366004610ba3565b610260565b005b600154610133906001600160a01b031681565b6040516001600160a01b039091168152602001610102565b61015e610159366004610c01565b61054d565b6040519015158152602001610102565b600354610133906001600160a01b031681565b61011e610594565b61019c610197366004610ba3565b6105a8565b6040805182516001600160a01b031681526020808401519082015291810151151590820152606001610102565b6000546001600160a01b0316610133565b6101337f000000000000000000000000000000000000000000000000000000000000000081565b61011e61020f366004610c55565b61061b565b61011e610222366004610c77565b61066d565b61011e610235366004610c55565b6106fa565b61011e610248366004610c90565b6107a2565b61011e61025b366004610c55565b6109ce565b600060048383604051610274929190610ced565b90815260408051918290036020908101832060608401835280546001600160a01b031684526001810154918401919091526002015460ff1615159082018190529091506103085760405162461bcd60e51b815260206004820152601760248201527f436f75727365733a20636f75727365206d697373696e6700000000000000000060448201526064015b60405180910390fd5b6005838360405161031a929190610ced565b9081526040805160209281900383019020336000908152925290205460ff16156103865760405162461bcd60e51b815260206004820152601a60248201527f436f75727365733a20616c72656164792070757263686173656400000000000060448201526064016102ff565b6000612710600254836020015161039d9190610d13565b6103a79190610d2a565b905060008183602001516103bb9190610d4c565b6003549091506103fa906001600160a01b037f000000000000000000000000000000000000000000000000000000000000000081169133911685610a0c565b8251610433906001600160a01b037f00000000000000000000000000000000000000000000000000000000000000001690339084610a0c565b600160058686604051610447929190610ced565b908152604080516020928190038301902033600090815292529020805460ff19169115159190911790556001546001600160a01b0316156104fb57600154604051630712249f60e01b81526001600160a01b0390911690630712249f906104b690339089908990600401610d88565b6020604051808303816000875af11580156104d5573d6000803e3d6000fd5b505050506040513d601f19601f820116820180604052508101906104f99190610db6565b505b336001600160a01b03167f7bbb54b3c3afa79d4c2ecc94eb4f2ee004edd8e4b05b46dda8ed65ec3317732a868686602001518660405161053e9493929190610dcf565b60405180910390a25050505050565b600060058484604051610561929190610ced565b908152604080519182900360209081019092206001600160a01b0385166000908152925290205460ff1690509392505050565b61059c610a6c565b6105a66000610a99565b565b604080516060810182526000808252602082018190528183015290516004906105d49085908590610ced565b90815260408051918290036020908101832060608401835280546001600160a01b031684526001810154918401919091526002015460ff1615159082015290505b92915050565b610623610a6c565b600180546001600160a01b0319166001600160a01b0383169081179091556040517fcbdbe2663c15b9f894924a83dfe8c10bd7ed61ba0ce97a0a770145409478d6a390600090a250565b610675610a6c565b6103e88111156106bf5760405162461bcd60e51b8152602060048201526015602482015274086deeae4e6cae67440cccaca40e8dede40d0d2ced605b1b60448201526064016102ff565b60028190556040518181527f45610d581145924dd7090a5017e5f2b1d6f42213bb2e95707ff86846bbfcb1ca9060200160405180910390a150565b610702610a6c565b6001600160a01b0381166107585760405162461bcd60e51b815260206004820152601e60248201527f436f75727365733a2066656520726563697069656e74206973207a65726f000060448201526064016102ff565b600380546001600160a01b0319166001600160a01b0383169081179091556040517f7a7b5a0a132f9e0581eb8527f66eae9ee89c2a3e79d4ac7e41a1f1f4d48a7fc290600090a250565b600484846040516107b4929190610ced565b9081526040519081900360200190206002015460ff16156108105760405162461bcd60e51b8152602060048201526016602482015275436f75727365733a20636f757273652065786973747360501b60448201526064016102ff565b6001600160a01b0381166108665760405162461bcd60e51b815260206004820152601760248201527f436f75727365733a20617574686f72206973207a65726f00000000000000000060448201526064016102ff565b336001600160a01b038216146108be5760405162461bcd60e51b815260206004820152601e60248201527f436f75727365733a2063616c6c6572206d75737420626520617574686f72000060448201526064016102ff565b600082116109075760405162461bcd60e51b8152602060048201526016602482015275436f75727365733a207072696365206973207a65726f60501b60448201526064016102ff565b604080516060810182526001600160a01b038316815260208101849052600181830152905160049061093c9087908790610ced565b9081526040805160209281900383018120845181546001600160a01b0319166001600160a01b0391821617825593850151600182015593909101516002909301805460ff1916931515939093179092558216907f046f45bcceb06d1fd12aab61a8f4280d1ad879cc6c452a315b3dcc8108f2d107906109c090879087908790610df6565b60405180910390a250505050565b6109d6610a6c565b6001600160a01b038116610a0057604051631e4fbdf760e01b8152600060048201526024016102ff565b610a0981610a99565b50565b604080516001600160a01b0385811660248301528416604482015260648082018490528251808303909101815260849091019091526020810180516001600160e01b03166323b872dd60e01b179052610a66908590610ae9565b50505050565b6000546001600160a01b031633146105a65760405163118cdaa760e01b81523360048201526024016102ff565b600080546001600160a01b038381166001600160a01b0319831681178455604051919092169283917f8be0079c531659141344cd1fd0a4f28419497f9722a3daafe3b4186f6b6457e09190a35050565b600080602060008451602086016000885af180610b0c576040513d6000823e3d81fd5b50506000513d91508115610b24578060011415610b31565b6001600160a01b0384163b155b15610a6657604051635274afe760e01b81526001600160a01b03851660048201526024016102ff565b60008083601f840112610b6c57600080fd5b50813567ffffffffffffffff811115610b8457600080fd5b602083019150836020828501011115610b9c57600080fd5b9250929050565b60008060208385031215610bb657600080fd5b823567ffffffffffffffff811115610bcd57600080fd5b610bd985828601610b5a565b90969095509350505050565b80356001600160a01b0381168114610bfc57600080fd5b919050565b600080600060408486031215610c1657600080fd5b833567ffffffffffffffff811115610c2d57600080fd5b610c3986828701610b5a565b9094509250610c4c905060208501610be5565b90509250925092565b600060208284031215610c6757600080fd5b610c7082610be5565b9392505050565b600060208284031215610c8957600080fd5b5035919050565b60008060008060608587031215610ca657600080fd5b843567ffffffffffffffff811115610cbd57600080fd5b610cc987828801610b5a565b90955093505060208501359150610ce260408601610be5565b905092959194509250565b8183823760009101908152919050565b634e487b7160e01b600052601160045260246000fd5b808202811582820484141761061557610615610cfd565b600082610d4757634e487b7160e01b600052601260045260246000fd5b500490565b8181038181111561061557610615610cfd565b81835281816020850137506000828201602090810191909152601f909101601f19169091010190565b6001600160a01b0384168152604060208201819052600090610dad9083018486610d5f565b95945050505050565b600060208284031215610dc857600080fd5b5051919050565b606081526000610de3606083018688610d5f565b6020830194909452506040015292915050565b604081526000610e0a604083018587610d5f565b905082602083015294935050505056fea2646970667358221220ac6d58d078326f7f87d4fb1b89890c8fefbfabac44fbf9254b46c09d114d7b0764736f6c63430008140033",
  "linkReferences": {},
  "deployedLinkReferences": {}
}