{"contracts/Courses.sol":{"Courses":{"abi":[{"inputs":[{"internalType":"address","name":"tokenAddress","type":"address"},{"internalType":"address","name":"certificateAddress","type":"address"},{"internalType":"address","name":"initialOwner","type":"address"},{"internalType":"address","name":"initialFeeRecipient","type":"address"},{"internalType":"uint256","name":"initialFeeBps","type":"uint256"}],"stateMutability":"nonpayable","type":"constructor"},{"inputs":[{"internalType":"address","name":"owner","type":"address"}],"name":"OwnableInvalidOwner","type":"error"},{"inputs":[{"internalType":"address","name":"account","type":"address"}],"name":"OwnableUnauthorizedAccount","type":"error"},{"inputs":[{"internalType":"address","name":"token","type":"address"}],"name":"SafeERC20FailedOperation","type":"error"},{"anonymous":false,"inputs":[{"indexed":true,"internalType":"address","name":"certificate","type":"address"}],"name":"CertificateUpdated","type":"event"},{"anonymous":false,"inputs":[{"indexed":false,"internalType":"string","name":"courseId","type":"string"},{"indexed":true,"internalType":"address","name":"author","type":"address"},{"indexed":false,"internalType":"uint256","name":"price","type":"uint256"}],"name":"CourseCreated","type":"event"},{"anonymous":false,"inputs":[{"indexed":false,"internalType":"string","name":"courseId","type":"string"},{"indexed":true,"internalType":"address","name":"student","type":"address"},{"indexed":false,"internalType":"uint256","name":"price","type":"uint256"},{"indexed":false,"internalType":"uint256","name":"fee","type":"uint256"}],"name":"CoursePurchased","type":"event"},{"anonymous":false,"inputs":[{"indexed":true,"internalType":"address","name":"feeRecipient","type":"address"}],"name":"FeeRecipientUpdated","type":"event"},{"anonymous":false,"inputs":[{"indexed":true,"internalType":"address","name":"previousOwner","type":"address"},{"indexed":true,"internalType":"address","name":"newOwner","type":"address"}],"name":"OwnershipTransferred","type":"event"},{"anonymous":false,"inputs":[{"indexed":false,"internalType":"uint256","name":"feeBps","type":"uint256"}],"name":"PlatformFeeUpdated","type":"event"},{"inputs":[{"internalType":"string","name":"courseId","type":"string"}],"name":"buyCourse","outputs":[],"stateMutability":"nonpayable","type":"function"},{"inputs":[],"name":"certificate","outputs":[{"internalType":"contract ICourseCertificate","name":"","type":"address"}],"stateMutability":"view","type":"function"},{"inputs":[{"internalType":"string","name":"courseId","type":"string"}],"name":"courseInfo","outputs":[{"components":[{"internalType":"address","name":"author","type":"address"},{"internalType":"uint256","name":"price","type":"uint256"},{"internalType":"bool","name":"exists","type":"bool"}],"internalType":"struct Courses.Course","name":"","type":"tuple"}],"stateMutability":"view","type":"function"},{"inputs":[{"internalType":"string","name":"courseId","type":"string"},{"internalType":"uint256","name":"price","type":"uint256"},{"internalType":"address","name":"author","type":"address"}],"name":"createCourse","outputs":[],"stateMutability":"nonpayable","type":"function"},{"inputs":[],"name":"feeRecipient","outputs":[{"internalType":"address","name":"","type":"address"}],"stateMutability":"view","type":"function"},{"inputs":[{"internalType":"string","name":"courseId","type":"string"},{"internalType":"address","name":"student","type":"address"}],"name":"hasPurchased","outputs":[{"internalType":"bool","name":"","type":"bool"}],"stateMutability":"view","type":"function"},{"inputs":[],"name":"owner","outputs":[{"internalType":"address","name":"","type":"address"}],"stateMutability":"view","type":"function"},{"inputs":[],"name":"platformFeeBps","outputs":[{"internalType":"uint256","name":"","type":"uint256"}],"stateMutability":"view","type":"function"},{"inputs":[],"name":"renounceOwnership","outputs":[],"stateMutability":"nonpayable","type":"function"},{"inputs":[{"internalType":"address","name":"newCertificate","type":"address"}],"name":"setCertificate","outputs":[],"stateMutability":"nonpayable","type":"function"},{"inputs":[{"internalType":"address","name":"newRecipient","type":"address"}],"name":"setFeeRecipient","outputs":[],"stateMutability":"nonpayable","type":"function"},{"inputs":[{"internalType":"uint256","name":"newFeeBps","type":"uint256"}],"name":"setPlatformFeeBps","outputs":[],"stateMutability":"nonpayable","type":"function"},{"inputs":[{"internalType":"address","name":"newOwner","type":"address"}],"name":"transferOwnership","outputs":[],"stateMutability":"nonpayable","type":"function"},{"inputs":[],"name":"ydToken","outputs":[{"internalType":"contract IERC20","name":"","type":"address"}],"stateMutability":"view","type":"function"}],"evm":{"bytecode":{"linkReferences":{},"object":"60a06040523480156200001157600080fd5b506040516200110138038062001101833981016040819052620000349162000220565b826001600160a01b0381166200006557604051631e4fbdf760e01b8152600060048201526024015b60405180910390fd5b6200007081620001b3565b506001600160a01b038516620000c95760405162461bcd60e51b815260206004820152601660248201527f436f75727365733a20746f6b656e206973207a65726f0000000000000000000060448201526064016200005c565b6001600160a01b038216620001215760405162461bcd60e51b815260206004820152601e60248201527f436f75727365733a2066656520726563697069656e74206973207a65726f000060448201526064016200005c565b6103e8811115620001755760405162461bcd60e51b815260206004820152601560248201527f436f75727365733a2066656520746f6f2068696768000000000000000000000060448201526064016200005c565b6001600160a01b03948516608052600180549486166001600160a01b0319958616179055600380549290951691909316179092556002555062000287565b600080546001600160a01b038381166001600160a01b0319831681178455604051919092169283917f8be0079c531659141344cd1fd0a4f28419497f9722a3daafe3b4186f6b6457e09190a35050565b80516001600160a01b03811681146200021b57600080fd5b919050565b600080600080600060a086880312156200023957600080fd5b620002448662000203565b9450620002546020870162000203565b9350620002646040870162000203565b9250620002746060870162000203565b9150608086015190509295509295909350565b608051610e50620002b1600039600081816101df015281816103cf015261040a0152610e506000f3fe608060405234801561001057600080fd5b50600436106100ea5760003560e01c80638da5cb5b1161008c578063c580c94211610066578063c580c94214610214578063e74b981b14610227578063e834fff21461023a578063f2fde38b1461024d57600080fd5b80638da5cb5b146101c9578063b9c5c022146101da578063c2489f181461020157600080fd5b80632dc6a5b8116100c85780632dc6a5b81461014b578063469048401461016e578063715018a61461018157806387a90f931461018957600080fd5b806322dcd13e146100ef578063298f32671461010b5780632dbf7b9814610120575b600080fd5b6100f860025481565b6040519081526020015b60405180910390f35b61011e610119366004610ba3565b610260565b005b600154610133906001600160a01b031681565b6040516001600160a01b039091168152602001610102565b61015e610159366004610c01565b61054d565b6040519015158152602001610102565b600354610133906001600160a01b031681565b61011e610594565b61019c610197366004610ba3565b6105a8565b6040805182516001600160a01b031681526020808401519082015291810151151590820152606001610102565b6000546001600160a01b0316610133565b6101337f000000000000000000000000000000000000000000000000000000000000000081565b61011e61020f366004610c55565b61061b565b61011e610222366004610c77565b61066d565b61011e610235366004610c55565b6106fa565b61011e610248366004610c90565b6107a2565b61011e61025b366004610c55565b6109ce565b600060048383604051610274929190610ced565b90815260408051918290036020908101832060608401835280546001600160a01b031684526001810154918401919091526002015460ff1615159082018190529091506103085760405162461bcd60e51b815260206004820152601760248201527f436f75727365733a20636f75727365206d697373696e6700000000000000000060448201526064015b60405180910390fd5b6005838360405161031a929190610ced565b9081526040805160209281900383019020336000908152925290205460ff16156103865760405162461bcd60e51b815260206004820152601a60248201527f436f75727365733a20616c72656164792070757263686173656400000000000060448201526064016102ff565b6000612710600254836020015161039d9190610d13565b6103a79190610d2a565b905060008183602001516103bb9190610d4c565b6003549091506103fa906001600160a01b037f000000000000000000000000000000000000000000000000000000000000000081169133911685610a0c565b8251610433906001600160a01b037f00000000000000000000000000000000000000000000000000000000000000001690339084610a0c565b600160058686604051610447929190610ced565b908152604080516020928190038301902033600090815292529020805460ff19169115159190911790556001546001600160a01b0316156104fb57600154604051630712249f60e01b81526001600160a01b0390911690630712249f906104b690339089908990600401610d88565b6020604051808303816000875af11580156104d5573d6000803e3d6000fd5b505050506040513d601f19601f820116820180604052508101906104f99190610db6565b505b336001600160a01b03167f7bbb54b3c3afa79d4c2ecc94eb4f2ee004edd8e4b05b46dda8ed65ec3317732a868686602001518660405161053e9493929190610dcf565b60405180910390a25050505050565b600060058484604051610561929190610ced565b908152604080519182900360209081019092206001600160a01b0385166000908152925290205460ff1690509392505050565b61059c610a6c565b6105a66000610a99565b565b604080516060810182526000808252602082018190528183015290516004906105d49085908590610ced565b90815260408051918290036020908101832060608401835280546001600160a01b031684526001810154918401919091526002015460ff1615159082015290505b92915050565b610623610a6c565b600180546001600160a01b0319166001600160a01b0383169081179091556040517fcbdbe2663c15b9f894924a83dfe8c10bd7ed61ba0ce97a0a770145409478d6a390600090a250565b610675610a6c565b6103e88111156106bf5760405162461bcd60e51b8152602060048201526015602482015274086deeae4e6cae67440cccaca40e8dede40d0d2ced605b1b60448201526064016102ff565b60028190556040518181527f45610d581145924dd7090a5017e5f2b1d6f42213bb2e95707ff86846bbfcb1ca9060200160405180910390a150565b610702610a6c565b6001600160a01b0381166107585760405162461bcd60e51b815260206004820152601e60248201527f436f75727365733a2066656520726563697069656e74206973207a65726f000060448201526064016102ff565b600380546001600160a01b0319166001600160a01b0383169081179091556040517f7a7b5a0a132f9e0581eb8527f66eae9ee89c2a3e79d4ac7e41a1f1f4d48a7fc290600090a250565b600484846040516107b4929190610ced565b9081526040519081900360200190206002015460ff16156108105760405162461bcd60e51b8152602060048201526016602482015275436f75727365733a20636f757273652065786973747360501b60448201526064016102ff565b6001600160a01b0381166108665760405162461bcd60e51b815260206004820152601760248201527f436f75727365733a20617574686f72206973207a65726f00000000000000000060448201526064016102ff565b336001600160a01b038216146108be5760405162461bcd60e51b815260206004820152601e60248201527f436f75727365733a2063616c6c6572206d75737420626520617574686f72000060448201526064016102ff565b600082116109075760405162461bcd60e51b8152602060048201526016602482015275436f75727365733a207072696365206973207a65726f60501b60448201526064016102ff565b604080516060810182526001600160a01b038316815260208101849052600181830152905160049061093c9087908790610ced565b9081526040805160209281900383018120845181546001600160a01b0319166001600160a01b0391821617825593850151600182015593909101516002909301805460ff1916931515939093179092558216907f046f45bcceb06d1fd12aab61a8f4280d1ad879cc6c452a315b3dcc8108f2d107906109c090879087908790610df6565b60405180910390a250505050565b6109d6610a6c565b6001600160a01b038116610a0057604051631e4fbdf760e01b8152600060048201526024016102ff565b610a0981610a99565b50565b604080516001600160a01b0385811660248301528416604482015260648082018490528251808303909101815260849091019091526020810180516001600160e01b03166323b872dd60e01b179052610a66908590610ae9565b50505050565b6000546001600160a01b031633146105a65760405163118cdaa760e01b81523360048201526024016102ff565b600080546001600160a01b038381166001600160a01b0319831681178455604051919092169283917f8be0079c531659141344cd1fd0a4f28419497f9722a3daafe3b4186f6b6457e09190a35050565b600080602060008451602086016000885af180610b0c576040513d6000823e3d81fd5b50506000513d91508115610b24578060011415610b31565b6001600160a01b0384163b155b15610a6657604051635274afe760e01b81526001600160a01b03851660048201526024016102ff565b60008083601f840112610b6c57600080fd5b50813567ffffffffffffffff811115610b8457600080fd5b602083019150836020828501011115610b9c57600080fd5b9250929050565b60008060208385031215610bb657600080fd5b823567ffffffffffffffff811115610bcd57600080fd5b610bd985828601610b5a565b90969095509350505050565b80356001600160a01b0381168114610bfc57600080fd5b919050565b600080600060408486031215610c1657600080fd5b833567ffffffffffffffff811115610c2d57600080fd5b610c3986828701610b5a565b9094509250610c4c905060208501610be5565b90509250925092565b600060208284031215610c6757600080fd5b610c7082610be5565b9392505050565b600060208284031215610c8957600080fd5b5035919050565b60008060008060608587031215610ca657600080fd5b843567ffffffffffffffff811115610cbd57600080fd5b610cc987828801610b5a565b90955093505060208501359150610ce260408601610be5565b905092959194509250565b8183823760009101908152919050565b634e487b7160e01b600052601160045260246000fd5b808202811582820484141761061557610615610cfd565b600082610d4757634e487b7160e01b600052601260045260246000fd5b500490565b8181038181111561061557610615610cfd565b81835281816020850137506000828201602090810191909152601f909101601f19169091010190565b6001600160a01b0384168152604060208201819052600090610dad9083018486610d5f565b95945050505050565b600060208284031215610dc857600080fd5b5051919050565b606081526000610de3606083018688610d5f565b6020830194909452506040015292915050565b604081526000610e0a604083018587610d5f565b905082602083015294935050505056fea2646970667358221220ac6d58d078326f7f87d4fb1b89890c8fefbfabac44fbf9254b46c09d114d7b0764736f6c63430008140033","opcodes":"PUSH1 0xA0 PUSH1 0x40 MSTORE CALLVALUE DUP1 ISZERO PUSH3 0x11 JUMPI PUSH1 0x0 DUP1 REVERT JUMPDEST POP PUSH1 0x40 MLOAD PUSH3 0x1101 CODESIZE SUB DUP1 PUSH3 0x1101 DUP4 CODECOPY DUP2 ADD PUSH1 0x40 DUP2 SWAP1 MSTORE PUSH3 0x34 SWAP2 PUSH3 0x220 JUMP JUMPDEST DUP3 PUSH1 0x1 PUSH1 0x1 PUSH1 0xA0 SHL SUB DUP2 AND PUSH3 0x65 JUMPI PUSH1 0x40 MLOAD PUSH4 0x1E4FBDF7 PUSH1 0xE0 SHL DUP2 MSTORE PUSH1 0x0 PUSH1 0x4 DUP3 ADD MSTORE PUSH1 0x24 ADD JUMPDEST PUSH1 0x40 MLOAD DUP1 SWAP2 SUB SWAP1 REVERT JUMPDEST PUSH3 0x70 DUP2 PUSH3 0x1B3 JUMP JUMPDEST POP PUSH1 0x1 PUSH1 0x1 PUSH1 0xA0 SHL SUB DUP6 AND PUSH3 0xC9 JUMPI PUSH1 0x40 MLOAD PUSH3 0x461BCD PUSH1 0xE5 SHL DUP2 MSTORE PUSH1 0x20 PUSH1 0x4 DUP3 ADD MSTORE PUSH1 0x16 PUSH1 0x24 DUP3 ADD MSTORE PUSH32 0x436F75727365733A20746F6B656E206973207A65726F00000000000000000000 PUSH1 0x44 DUP3 ADD MSTORE PUSH1 0x64 ADD PUSH3 0x5C JUMP JUMPDEST PUSH1 0x1 PUSH1 0x1 PUSH1 0xA0 SHL SUB DUP3 AND PUSH3 0x121 JUMPI PUSH1 0x40 MLOAD PUSH3 0x461BCD PUSH1 0xE5 SHL DUP2 MSTORE PUSH1 0x20 PUSH1 0x4 DUP3 ADD MSTORE PUSH1 0x1E PUSH1 0x24 DUP3 ADD MSTORE PUSH32 0x436F75727365733A2066656520726563697069656E74206973207A65726F0000 PUSH1 0x44 DUP3 ADD MSTORE PUSH1 0x64 ADD PUSH3 0x5C JUMP JUMPDEST PUSH2 0x3E8 DUP2 GT ISZERO PUSH3 0x175 JUMPI PUSH1 0x40 MLOAD PUSH3 0x461BCD PUSH1 0xE5 SHL DUP2 MSTORE PUSH1 0x20 PUSH1 0x4 DUP3 ADD MSTORE PUSH1 0x15 PUSH1 0x24 DUP3 ADD MSTORE PUSH32 0x436F75727365733A2066656520746F6F20686967680000000000000000000000 PUSH1 0x44 DUP3 ADD MSTORE PUSH1 0x64 ADD PUSH3 0x5C JUMP JUMPDEST PUSH1 0x1 PUSH1 0x1 PUSH1 0xA0 SHL SUB SWAP5 DUP6 AND PUSH1 0x80 MSTORE PUSH1 0x1 DUP1 SLOAD SWAP5 DUP7 AND PUSH1 0x1 PUSH1 0x1 PUSH1 0xA0 SHL SUB NOT SWAP6 DUP7 AND OR SWAP1 SSTORE PUSH1 0x3 DUP1 SLOAD SWAP3 SWAP1 SWAP6 AND SWAP2 SWAP1 SWAP4 AND OR SWAP1 SWAP3 SSTORE PUSH1 0x2 SSTORE POP PUSH3 0x287 JUMP JUMPDEST PUSH1 0x0 DUP1 SLOAD PUSH1 0x1 PUSH1 0x1 PUSH1 0xA0 SHL SUB DUP4 DUP2 AND PUSH1 0x1 PUSH1 0x1 PUSH1 0xA0 SHL SUB NOT DUP4 AND DUP2 OR DUP5 SSTORE PUSH1 0x40 MLOAD SWAP2 SWAP1 SWAP3 AND SWAP3 DUP4 SWAP2 PUSH32 0x8BE0079C531659141344CD1FD0A4F28419497F9722A3DAAFE3B4186F6B6457E0 SWAP2 SWAP1 LOG3 POP POP JUMP JUMPDEST DUP1 MLOAD PUSH1 0x1 PUSH1 0x1 PUSH1 0xA0 SHL SUB DUP2 AND DUP2 EQ PUSH3 0x21B JUMPI PUSH1 0x0 DUP1 REVERT JUMPDEST SWAP2 SWAP1 POP JUMP JUMPDEST PUSH1 0x0 DUP1 PUSH1 0x0 DUP1 PUSH1 0x0 PUSH1 0xA0 DUP7 DUP9 SUB SLT ISZERO PUSH3 0x239 JUMPI PUSH1 0x0 DUP1 REVERT JUMPDEST PUSH3 0x244 DUP7 PUSH3 0x203 JUMP JUMPDEST SWAP5 POP PUSH3 0x254 PUSH1 0x20 DUP8 ADD PUSH3 0x203 JUMP JUMPDEST SWAP4 POP PUSH3 0x264 PUSH1 0x40 DUP8 ADD PUSH3 0x203 JUMP JUMPDEST SWAP3 POP PUSH3 0x274 PUSH1 0x60 DUP8 ADD PUSH3 0x203 JUMP JUMPDEST SWAP2 POP PUSH1 0x80 DUP7 ADD MLOAD SWAP1 POP SWAP3 SWAP6 POP SWAP3 SWAP6 SWAP1 SWAP4 POP JUMP JUMPDEST PUSH1 0x80 MLOAD PUSH2 0xE50 PUSH3 0x2B1 PUSH1 0x0 CODECOPY PUSH1 0x0 DUP2 DUP2 PUSH2 0x1DF ADD MSTORE DUP2 DUP2 PUSH2 0x3CF ADD MSTORE PUSH2 0x40A ADD MSTORE PUSH2 0xE50 PUSH1 0x0 RETURN INVALID PUSH1 0x80 PUSH1 0x40 MSTORE CALLVALUE DUP1 ISZERO PUSH2 0x10 JUMPI PUSH1 0x0 DUP1 REVERT JUMPDEST POP PUSH1 0x4 CALLDATASIZE LT PUSH2 0xEA JUMPI PUSH1 0x0 CALLDATALOAD PUSH1 0xE0 SHR DUP1 PUSH4 0x8DA5CB5B GT PUSH2 0x8C JUMPI DUP1 PUSH4 0xC580C942 GT PUSH2 0x66 JUMPI DUP1 PUSH4 0xC580C942 EQ PUSH2 0x214 JUMPI DUP1 PUSH4 0xE74B981B EQ PUSH2 0x227 JUMPI DUP1 PUSH4 0xE834FFF2 EQ PUSH2 0x23A JUMPI DUP1 PUSH4 0xF2FDE38B EQ PUSH2 0x24D JUMPI PUSH1 0x0 DUP1 REVERT JUMPDEST DUP1 PUSH4 0x8DA5CB5B EQ PUSH2 0x1C9 JUMPI DUP1 PUSH4 0xB9C5C022 EQ PUSH2 0x1DA JUMPI DUP1 PUSH4 0xC2489F18 EQ PUSH2 0x201 JUMPI PUSH1 0x0 DUP1 REVERT JUMPDEST DUP1 PUSH4 0x2DC6A5B8 GT PUSH2 0xC8 JUMPI DUP1 PUSH4 0x2DC6A5B8 EQ PUSH2 0x14B JUMPI DUP1 PUSH4 0x46904840 EQ PUSH2 0x16E JUMPI DUP1 PUSH4 0x715018A6 EQ PUSH2 0x181 JUMPI DUP1 PUSH4 0x87A90F93 EQ PUSH2 0x189 JUMPI PUSH1 0x0 DUP1 REVERT JUMPDEST DUP1 PUSH4 0x22DCD13E EQ PUSH2 0xEF JUMPI DUP1 PUSH4 0x298F3267 EQ PUSH2 0x10B JUMPI DUP1 PUSH4 0x2DBF7B98 EQ PUSH2 0x120 JUMPI JUMPDEST PUSH1 0x0 DUP1 REVERT JUMPDEST PUSH2 0xF8 PUSH1 0x2 SLOAD DUP2 JUMP JUMPDEST PUSH1 0x40 MLOAD SWAP1 DUP2 MSTORE PUSH1 0x20 ADD JUMPDEST PUSH1 0x40 MLOAD DUP1 SWAP2 SUB SWAP1 RETURN JUMPDEST PUSH2 0x11E PUSH2 0x119 CALLDATASIZE PUSH1 0x4 PUSH2 0xBA3 JUMP JUMPDEST PUSH2 0x260 JUMP JUMPDEST STOP JUMPDEST PUSH1 0x1 SLOAD PUSH2 0x133 SWAP1 PUSH1 0x1 PUSH1 0x1 PUSH1 0xA0 SHL SUB AND DUP2 JUMP JUMPDEST PUSH1 0x40 MLOAD PUSH1 0x1 PUSH1 0x1 PUSH1 0xA0 SHL SUB SWAP1 SWAP2 AND DUP2 MSTORE PUSH1 0x20 ADD PUSH2 0x102 JUMP JUMPDEST PUSH2 0x15E PUSH2 0x159 CALLDATASIZE PUSH1 0x4 PUSH2 0xC01 JUMP JUMPDEST PUSH2 0x54D JUMP JUMPDEST PUSH1 0x40 MLOAD SWAP1 ISZERO ISZERO DUP2 MSTORE PUSH1 0x20 ADD PUSH2 0x102 JUMP JUMPDEST PUSH1 0x3 SLOAD PUSH2 0x133 SWAP1 PUSH1 0x1 PUSH1 0x1 PUSH1 0xA0 SHL SUB AND DUP2 JUMP JUMPDEST PUSH2 0x11E PUSH2 0x594 JUMP JUMPDEST PUSH2 0x19C PUSH2 0x197 CALLDATASIZE PUSH1 0x4 PUSH2 0xBA3 JUMP JUMPDEST PUSH2 0x5A8 JUMP JUMPDEST PUSH1 0x40 DUP1 MLOAD DUP3 MLOAD PUSH1 0x1 PUSH1 0x1 PUSH1 0xA0 SHL SUB AND DUP2 MSTORE PUSH1 0x20 DUP1 DUP5 ADD MLOAD SWAP1 DUP3 ADD MSTORE SWAP2 DUP2 ADD MLOAD ISZERO ISZERO SWAP1 DUP3 ADD MSTORE PUSH1 0x60 ADD PUSH2 0x102 JUMP JUMPDEST PUSH1 0x0 SLOAD PUSH1 0x1 PUSH1 0x1 PUSH1 0xA0 SHL SUB AND PUSH2 0x133 JUMP JUMPDEST PUSH2 0x133 PUSH32 0x0 DUP2 JUMP JUMPDEST PUSH2 0x11E PUSH2 0x20F CALLDATASIZE PUSH1 0x4 PUSH2 0xC55 JUMP JUMPDEST PUSH2 0x61B JUMP JUMPDEST PUSH2 0x11E PUSH2 0x222 CALLDATASIZE PUSH1 0x4 PUSH2 0xC77 JUMP JUMPDEST PUSH2 0x66D JUMP JUMPDEST PUSH2 0x11E PUSH2 0x235 CALLDATASIZE PUSH1 0x4 PUSH2 0xC55 JUMP JUMPDEST PUSH2 0x6FA JUMP JUMPDEST PUSH2 0x11E PUSH2 0x248 CALLDATASIZE PUSH1 0x4 PUSH2 0xC90 JUMP JUMPDEST PUSH2 0x7A2 JUMP JUMPDEST PUSH2 0x11E PUSH2 0x25B CALLDATASIZE PUSH1 0x4 PUSH2 0xC55 JUMP JUMPDEST PUSH2 0x9CE JUMP JUMPDEST PUSH1 0x0 PUSH1 0x4 DUP4 DUP4 PUSH1 0x40 MLOAD PUSH2 0x274 SWAP3 SWAP2 SWAP1 PUSH2 0xCED JUMP JUMPDEST SWAP1 DUP2 MSTORE PUSH1 0x40 DUP1 MLOAD SWAP2 DUP3 SWAP1 SUB PUSH1 0x20 SWAP1 DUP2 ADD DUP4 KECCAK256 PUSH1 0x60 DUP5 ADD DUP4 MSTORE DUP1 SLOAD PUSH1 0x1 PUSH1 0x1 PUSH1 0xA0 SHL SUB AND DUP5 MSTORE PUSH1 0x1 DUP2 ADD SLOAD SWAP2 DUP5 ADD SWAP2 SWAP1 SWAP2 MSTORE PUSH1 0x2 ADD SLOAD PUSH1 0xFF AND ISZERO ISZERO SWAP1 DUP3 ADD DUP2 SWAP1 MSTORE SWAP1 SWAP2 POP PUSH2 0x308 JUMPI PUSH1 0x40 MLOAD PUSH3 0x461BCD PUSH1 0xE5 SHL DUP2 MSTORE PUSH1 0x20 PUSH1 0x4 DUP3 ADD MSTORE PUSH1 0x17 PUSH1 0x24 DUP3 ADD MSTORE PUSH32 0x436F75727365733A20636F75727365206D697373696E67000000000000000000 PUSH1 0x44 DUP3 ADD MSTORE PUSH1 0x64 ADD JUMPDEST PUSH1 0x40 MLOAD DUP1 SWAP2 SUB SWAP1 REVERT JUMPDEST PUSH1 0x5 DUP4 DUP4 PUSH1 0x40 MLOAD PUSH2 0x31A SWAP3 SWAP2 SWAP1 PUSH2 0xCED JUMP JUMPDEST SWAP1 DUP2 MSTORE PUSH1 0x40 DUP1 MLOAD PUSH1 0x20 SWAP3 DUP2 SWAP1 SUB DUP4 ADD SWAP1 KECCAK256 CALLER PUSH1 0x0 SWAP1 DUP2 MSTORE SWAP3 MSTORE SWAP1 KECCAK256 SLOAD PUSH1 0xFF AND ISZERO PUSH2 0x386 JUMPI PUSH1 0x40 MLOAD PUSH3 0x461BCD PUSH1 0xE5 SHL DUP2 MSTORE PUSH1 0x20 PUSH1 0x4 DUP3 ADD MSTORE PUSH1 0x1A PUSH1 0x24 DUP3 ADD MSTORE PUSH32 0x436F75727365733A20616C726561647920707572636861736564000000000000 PUSH1 0x44 DUP3 ADD MSTORE PUSH1 0x64 ADD PUSH2 0x2FF JUMP JUMPDEST PUSH1 0x0 PUSH2 0x2710 PUSH1 0x2 SLOAD DUP4 PUSH1 0x20 ADD MLOAD PUSH2 0x39D SWAP2 SWAP1 PUSH2 0xD13 JUMP JUMPDEST PUSH2 0x3A7 SWAP2 SWAP1 PUSH2 0xD2A JUMP JUMPDEST SWAP1 POP PUSH1 0x0 DUP2 DUP4 PUSH1 0x20 ADD MLOAD PUSH2 0x3BB SWAP2 SWAP1 PUSH2 0xD4C JUMP JUMPDEST PUSH1 0x3 SLOAD SWAP1 SWAP2 POP PUSH2 0x3FA SWAP1 PUSH1 0x1 PUSH1 0x1 PUSH1 0xA0 SHL SUB PUSH32 0x0 DUP2 AND SWAP2 CALLER SWAP2 AND DUP6 PUSH2 0xA0C JUMP JUMPDEST DUP3 MLOAD PUSH2 0x433 SWAP1 PUSH1 0x1 PUSH1 0x1 PUSH1 0xA0 SHL SUB PUSH32 0x0 AND SWAP1 CALLER SWAP1 DUP5 PUSH2 0xA0C JUMP JUMPDEST PUSH1 0x1 PUSH1 0x5 DUP7 DUP7 PUSH1 0x40 MLOAD PUSH2 0x447 SWAP3 SWAP2 SWAP1 PUSH2 0xCED JUMP JUMPDEST SWAP1 DUP2 MSTORE PUSH1 0x40 DUP1 MLOAD PUSH1 0x20 SWAP3 DUP2 SWAP1 SUB DUP4 ADD SWAP1 KECCAK256 CALLER PUSH1 0x0 SWAP1 DUP2 MSTORE SWAP3 MSTORE SWAP1 KECCAK256 DUP1 SLOAD PUSH1 0xFF NOT AND SWAP2 ISZERO ISZERO SWAP2 SWAP1 SWAP2 OR SWAP1 SSTORE PUSH1 0x1 SLOAD PUSH1 0x1 PUSH1 0x1 PUSH1 0xA0 SHL SUB AND ISZERO PUSH2 0x4FB JUMPI PUSH1 0x1 SLOAD PUSH1 0x40 MLOAD PUSH4 0x712249F PUSH1 0xE0 SHL DUP2 MSTORE PUSH1 0x1 PUSH1 0x1 PUSH1 0xA0 SHL SUB SWAP1 SWAP2 AND SWAP1 PUSH4 0x712249F SWAP1 PUSH2 0x4B6 SWAP1 CALLER SWAP1 DUP10 SWAP1 DUP10 SWAP1 PUSH1 0x4 ADD PUSH2 0xD88 JUMP JUMPDEST PUSH1 0x20 PUSH1 0x40 MLOAD DUP1 DUP4 SUB DUP2 PUSH1 0x0 DUP8 GAS CALL ISZERO DUP1 ISZERO PUSH2 0x4D5 JUMPI RETURNDATASIZE PUSH1 0x0 DUP1 RETURNDATACOPY RETURNDATASIZE PUSH1 0x0 REVERT JUMPDEST POP POP POP POP PUSH1 0x40 MLOAD RETURNDATASIZE PUSH1 0x1F NOT PUSH1 0x1F DUP3 ADD AND DUP3 ADD DUP1 PUSH1 0x40 MSTORE POP DUP2 ADD SWAP1 PUSH2 0x4F9 SWAP2 SWAP1 PUSH2 0xDB6 JUMP JUMPDEST POP JUMPDEST CALLER PUSH1 0x1 PUSH1 0x1 PUSH1 0xA0 SHL SUB AND PUSH32 0x7BBB54B3C3AFA79D4C2ECC94EB4F2EE004EDD8E4B05B46DDA8ED65EC3317732A DUP7 DUP7 DUP7 PUSH1 0x20 ADD MLOAD DUP7 PUSH1 0x40 MLOAD PUSH2 0x53E SWAP5 SWAP4 SWAP3 SWAP2 SWAP1 PUSH2 0xDCF JUMP JUMPDEST PUSH1 0x40 MLOAD DUP1 SWAP2 SUB SWAP1 LOG2 POP POP POP POP POP JUMP JUMPDEST PUSH1 0x0 PUSH1 0x5 DUP5 DUP5 PUSH1 0x40 MLOAD PUSH2 0x561 SWAP3 SWAP2 SWAP1 PUSH2 0xCED JUMP JUMPDEST SWAP1 DUP2 MSTORE PUSH1 0x40 DUP1 MLOAD SWAP2 DUP3 SWAP1 SUB PUSH1 0x20 SWAP1 DUP2 ADD SWAP1 SWAP3 KECCAK256 PUSH1 0x1 PUSH1 0x1 PUSH1 0xA0 SHL SUB DUP6 AND PUSH1 0x0 SWAP1 DUP2 MSTORE SWAP3 MSTORE SWAP1 KECCAK256 SLOAD PUSH1 0xFF AND SWAP1 POP SWAP4 SWAP3 POP POP POP JUMP JUMPDEST PUSH2 0x59C PUSH2 0xA6C JUMP JUMPDEST PUSH2 0x5A6 PUSH1 0x0 PUSH2 0xA99 JUMP JUMPDEST JUMP JUMPDEST PUSH1 0x40 DUP1 MLOAD PUSH1 0x60 DUP2 ADD DUP3 MSTORE PUSH1 0x0 DUP1 DUP3 MSTORE PUSH1 0x20 DUP3 ADD DUP2 SWAP1 MSTORE DUP2 DUP4 ADD MSTORE SWAP1 MLOAD PUSH1 0x4 SWAP1 PUSH2 0x5D4 SWAP1 DUP6 SWAP1 DUP6 SWAP1 PUSH2 0xCED JUMP JUMPDEST SWAP1 DUP2 MSTORE PUSH1 0x40 DUP1 MLOAD SWAP2 DUP3 SWAP1 SUB PUSH1 0x20 SWAP1 DUP2 ADD DUP4 KECCAK256 PUSH1 0x60 DUP5 ADD DUP4 MSTORE DUP1 SLOAD PUSH1 0x1 PUSH1 0x1 PUSH1 0xA0 SHL SUB AND DUP5 MSTORE PUSH1 0x1 DUP2 ADD SLOAD SWAP2 DUP5 ADD SWAP2 SWAP1 SWAP2 MSTORE PUSH1 0x2 ADD SLOAD PUSH1 0xFF AND ISZERO ISZERO SWAP1 DUP3 ADD MSTORE SWAP1 POP JUMPDEST SWAP3 SWAP2 POP POP JUMP JUMPDEST PUSH2 0x623 PUSH2 0xA6C JUMP JUMPDEST PUSH1 0x1 DUP1 SLOAD PUSH1 0x1 PUSH1 0x1 PUSH1 0xA0 SHL SUB NOT AND PUSH1 0x1 PUSH1 0x1 PUSH1 0xA0 SHL SUB DUP4 AND SWAP1 DUP2 OR SWAP1 SWAP2 SSTORE PUSH1 0x40 MLOAD PUSH32 0xCBDBE2663C15B9F894924A83DFE8C10BD7ED61BA0CE97A0A770145409478D6A3 SWAP1 PUSH1 0x0 SWAP1 LOG2 POP JUMP JUMPDEST PUSH2 0x675 PUSH2 0xA6C JUMP JUMPDEST PUSH2 0x3E8 DUP2 GT ISZERO PUSH2 0x6BF JUMPI PUSH1 0x40 MLOAD PUSH3 0x461BCD PUSH1 0xE5 SHL DUP2 MSTORE PUSH1 0x20 PUSH1 0x4 DUP3 ADD MSTORE PUSH1 0x15 PUSH1 0x24 DUP3 ADD MSTORE PUSH21 0x86DEEAE4E6CAE67440CCCACA40E8DEDE40D0D2CED PUSH1 0x5B SHL PUSH1 0x44 DUP3 ADD MSTORE PUSH1 0x64 ADD PUSH2 0x2FF JUMP JUMPDEST PUSH1 0x2 DUP2 SWAP1 SSTORE PUSH1 0x40 MLOAD DUP2 DUP2 MSTORE PUSH32 0x45610D581145924DD7090A5017E5F2B1D6F42213BB2E95707FF86846BBFCB1CA SWAP1 PUSH1 0x20 ADD PUSH1 0x40 MLOAD DUP1 SWAP2 SUB SWAP1 LOG1 POP JUMP JUMPDEST PUSH2 0x702 PUSH2 0xA6C JUMP JUMPDEST PUSH1 0x1 PUSH1 0x1 PUSH1 0xA0 SHL SUB DUP2 AND PUSH2 0x758 JUMPI PUSH1 0x40 MLOAD PUSH3 0x461BCD PUSH1 0xE5 SHL DUP2 MSTORE PUSH1 0x20 PUSH1 0x4 DUP3 ADD MSTORE PUSH1 0x1E PUSH1 0x24 DUP3 ADD MSTORE PUSH32 0x436F75727365733A2066656520726563697069656E74206973207A65726F0000 PUSH1 0x44 DUP3 ADD MSTORE PUSH1 0x64 ADD PUSH2 0x2FF JUMP JUMPDEST PUSH1 0x3 DUP1 SLOAD PUSH1 0x1 PUSH1 0x1 PUSH1 0xA0 SHL SUB NOT AND PUSH1 0x1 PUSH1 0x1 PUSH1 0xA0 SHL SUB DUP4 AND SWAP1 DUP2 OR SWAP1 SWAP2 SSTORE PUSH1 0x40 MLOAD PUSH32 0x7A7B5A0A132F9E0581EB8527F66EAE9EE89C2A3E79D4AC7E41A1F1F4D48A7FC2 SWAP1 PUSH1 0x0 SWAP1 LOG2 POP JUMP JUMPDEST PUSH1 0x4 DUP5 DUP5 PUSH1 0x40 MLOAD PUSH2 0x7B4 SWAP3 SWAP2 SWAP1 PUSH2 0xCED JUMP JUMPDEST SWAP1 DUP2 MSTORE PUSH1 0x40 MLOAD SWAP1 DUP2 SWAP1 SUB PUSH1 0x20 ADD SWAP1 KECCAK256 PUSH1 0x2 ADD SLOAD PUSH1 0xFF AND ISZERO PUSH2 0x810 JUMPI PUSH1 0x40 MLOAD PUSH3 0x461BCD PUSH1 0xE5 SHL DUP2 MSTORE PUSH1 0x20 PUSH1 0x4 DUP3 ADD MSTORE PUSH1 0x16 PUSH1 0x24 DUP3 ADD MSTORE PUSH22 0x436F75727365733A20636F7572736520657869737473 PUSH1 0x50 SHL PUSH1 0x44 DUP3 ADD MSTORE PUSH1 0x64 ADD PUSH2 0x2FF JUMP JUMPDEST PUSH1 0x1 PUSH1 0x1 PUSH1 0xA0 SHL SUB DUP2 AND PUSH2 0x866 JUMPI PUSH1 0x40 MLOAD PUSH3 0x461BCD PUSH1 0xE5 SHL DUP2 MSTORE PUSH1 0x20 PUSH1 0x4 DUP3 ADD MSTORE PUSH1 0x17 PUSH1 0x24 DUP3 ADD MSTORE PUSH32 0x436F75727365733A20617574686F72206973207A65726F000000000000000000 PUSH1 0x44 DUP3 ADD MSTORE PUSH1 0x64 ADD PUSH2 0x2FF JUMP JUMPDEST CALLER PUSH1 0x1 PUSH1 0x1 PUSH1 0xA0 SHL SUB DUP3 AND EQ PUSH2 0x8BE JUMPI PUSH1 0x40 MLOAD PUSH3 0x461BCD PUSH1 0xE5 SHL DUP2 MSTORE PUSH1 0x20 PUSH1 0x4 DUP3 ADD MSTORE PUSH1 0x1E PUSH1 0x24 DUP3 ADD MSTORE PUSH32 0x436F75727365733A2063616C6C6572206D75737420626520617574686F720000 PUSH1 0x44 DUP3 ADD MSTORE PUSH1 0x64 ADD PUSH2 0x2FF JUMP JUMPDEST PUSH1 0x0 DUP3 GT PUSH2 0x907 JUMPI PUSH1 0x40 MLOAD PUSH3 0x461BCD PUSH1 0xE5 SHL DUP2 MSTORE PUSH1 0x20 PUSH1 0x4 DUP3 ADD MSTORE PUSH1 0x16 PUSH1 0x24 DUP3 ADD MSTORE PUSH22 0x436F75727365733A207072696365206973207A65726F PUSH1 0x50 SHL PUSH1 0x44 DUP3 ADD MSTORE PUSH1 0x64 ADD PUSH2 0x2FF JUMP JUMPDEST PUSH1 0x40 DUP1 MLOAD PUSH1 0x60 DUP2 ADD DUP3 MSTORE PUSH1 0x1 PUSH1 0x1 PUSH1 0xA0 SHL SUB DUP4 AND DUP2 MSTORE PUSH1 0x20 DUP2 ADD DUP5 SWAP1 MSTORE PUSH1 0x1 DUP2 DUP4 ADD MSTORE SWAP1 MLOAD PUSH1 0x4 SWAP1 PUSH2 0x93C SWAP1 DUP8 SWAP1 DUP8 SWAP1 PUSH2 0xCED JUMP JUMPDEST SWAP1 DUP2 MSTORE PUSH1 0x40 DUP1 MLOAD PUSH1 0x20 SWAP3 DUP2 SWAP1 SUB DUP4 ADD DUP2 KECCAK256 DUP5 MLOAD DUP2 SLOAD PUSH1 0x1 PUSH1 0x1 PUSH1 0xA0 SHL SUB NOT AND PUSH1 0x1 PUSH1 0x1 PUSH1 0xA0 SHL SUB SWAP2 DUP3 AND OR DUP3 SSTORE SWAP4 DUP6 ADD MLOAD PUSH1 0x1 DUP3 ADD SSTORE SWAP4 SWAP1 SWAP2 ADD MLOAD PUSH1 0x2 SWAP1 SWAP4 ADD DUP1 SLOAD PUSH1 0xFF NOT AND SWAP4 ISZERO ISZERO SWAP4 SWAP1 SWAP4 OR SWAP1 SWAP3 SSTORE DUP3 AND SWAP1 PUSH32 0x46F45BCCEB06D1FD12AAB61A8F4280D1AD879CC6C452A315B3DCC8108F2D107 SWAP1 PUSH2 0x9C0 SWAP1 DUP8 SWAP1 DUP8 SWAP1 DUP8 SWAP1 PUSH2 0xDF6 JUMP JUMPDEST PUSH1 0x40 MLOAD DUP1 SWAP2 SUB SWAP1 LOG2 POP POP POP POP JUMP JUMPDEST PUSH2 0x9D6 PUSH2 0xA6C JUMP JUMPDEST PUSH1 0x1 PUSH1 0x1 PUSH1 0xA0 SHL SUB DUP2 AND PUSH2 0xA00 JUMPI PUSH1 0x40 MLOAD PUSH4 0x1E4FBDF7 PUSH1 0xE0 SHL DUP2 MSTORE PUSH1 0x0 PUSH1 0x4 DUP3 ADD MSTORE PUSH1 0x24 ADD PUSH2 0x2FF JUMP JUMPDEST PUSH2 0xA09 DUP2 PUSH2 0xA99 JUMP JUMPDEST POP JUMP JUMPDEST PUSH1 0x40 DUP1 MLOAD PUSH1 0x1 PUSH1 0x1 PUSH1 0xA0 SHL SUB DUP6 DUP2 AND PUSH1 0x24 DUP4 ADD MSTORE DUP5 AND PUSH1 0x44 DUP3 ADD MSTORE PUSH1 0x64 DUP1 DUP3 ADD DUP5 SWAP1 MSTORE DUP3 MLOAD DUP1 DUP4 SUB SWAP1 SWAP2 ADD DUP2 MSTORE PUSH1 0x84 SWAP1 SWAP2 ADD SWAP1 SWAP2 MSTORE PUSH1 0x20 DUP2 ADD DUP1 MLOAD PUSH1 0x1 PUSH1 0x1 PUSH1 0xE0 SHL SUB AND PUSH4 0x23B872DD PUSH1 0xE0 SHL OR SWAP1 MSTORE PUSH2 0xA66 SWAP1 DUP6 SWAP1 PUSH2 0xAE9 JUMP JUMPDEST POP POP POP POP JUMP JUMPDEST PUSH1 0x0 SLOAD PUSH1 0x1 PUSH1 0x1 PUSH1 0xA0 SHL SUB AND CALLER EQ PUSH2 0x5A6 JUMPI PUSH1 0x40 MLOAD PUSH4 0x118CDAA7 PUSH1 0xE0 SHL DUP2 MSTORE CALLER PUSH1 0x4 DUP3 ADD MSTORE PUSH1 0x24 ADD PUSH2 0x2FF JUMP JUMPDEST PUSH1 0x0 DUP1 SLOAD PUSH1 0x1 PUSH1 0x1 PUSH1 0xA0 SHL SUB DUP4 DUP2 AND PUSH1 0x1 PUSH1 0x1 PUSH1 0xA0 SHL SUB NOT DUP4 AND DUP2 OR DUP5 SSTORE PUSH1 0x40 MLOAD SWAP2 SWAP1 SWAP3 AND SWAP3 DUP4 SWAP2 PUSH32 0x8BE0079C531659141344CD1FD0A4F28419497F9722A3DAAFE3B4186F6B6457E0 SWAP2 SWAP1 LOG3 POP POP JUMP JUMPDEST PUSH1 0x0 DUP1 PUSH1 0x20 PUSH1 0x0 DUP5 MLOAD PUSH1 0x20 DUP7 ADD PUSH1 0x0 DUP9 GAS CALL DUP1 PUSH2 0xB0C JUMPI PUSH1 0x40 MLOAD RETURNDATASIZE PUSH1 0x0 DUP3 RETURNDATACOPY RETURNDATASIZE DUP2 REVERT JUMPDEST POP POP PUSH1 0x0 MLOAD RETURNDATASIZE SWAP2 POP DUP2 ISZERO PUSH2 0xB24 JUMPI DUP1 PUSH1 0x1 EQ ISZERO PUSH2 0xB31 JUMP JUMPDEST PUSH1 0x1 PUSH1 0x1 PUSH1 0xA0 SHL SUB DUP5 AND EXTCODESIZE ISZERO JUMPDEST ISZERO PUSH2 0xA66 JUMPI PUSH1 0x40 MLOAD PUSH4 0x5274AFE7 PUSH1 0xE0 SHL DUP2 MSTORE PUSH1 0x1 PUSH1 0x1 PUSH1 0xA0 SHL SUB DUP6 AND PUSH1 0x4 DUP3 ADD MSTORE PUSH1 0x24 ADD PUSH2 0x2FF JUMP JUMPDEST PUSH1 0x0 DUP1 DUP4 PUSH1 0x1F DUP5 ADD SLT PUSH2 0xB6C JUMPI PUSH1 0x0 DUP1 REVERT JUMPDEST POP DUP2 CALLDATALOAD PUSH8 0xFFFFFFFFFFFFFFFF DUP2 GT ISZERO PUSH2 0xB84 JUMPI PUSH1 0x0 DUP1 REVERT JUMPDEST PUSH1 0x20 DUP4 ADD SWAP2 POP DUP4 PUSH1 0x20 DUP3 DUP6 ADD ADD GT ISZERO PUSH2 0xB9C JUMPI PUSH1 0x0 DUP1 REVERT JUMPDEST SWAP3 POP SWAP3 SWAP1 POP JUMP JUMPDEST PUSH1 0x0 DUP1 PUSH1 0x20 DUP4 DUP6 SUB SLT ISZERO PUSH2 0xBB6 JUMPI PUSH1 0x0 DUP1 REVERT JUMPDEST DUP3 CALLDATALOAD PUSH8 0xFFFFFFFFFFFFFFFF DUP2 GT ISZERO PUSH2 0xBCD JUMPI PUSH1 0x0 DUP1 REVERT JUMPDEST PUSH2 0xBD9 DUP6 DUP3 DUP7 ADD PUSH2 0xB5A JUMP JUMPDEST SWAP1 SWAP7 SWAP1 SWAP6 POP SWAP4 POP POP POP POP JUMP JUMPDEST DUP1 CALLDATALOAD PUSH1 0x1 PUSH1 0x1 PUSH1 0xA0 SHL SUB DUP2 AND DUP2 EQ PUSH2 0xBFC JUMPI PUSH1 0x0 DUP1 REVERT JUMPDEST SWAP2 SWAP1 POP JUMP JUMPDEST PUSH1 0x0 DUP1 PUSH1 0x0 PUSH1 0x40 DUP5 DUP7 SUB SLT ISZERO PUSH2 0xC16 JUMPI PUSH1 0x0 DUP1 REVERT JUMPDEST DUP4 CALLDATALOAD PUSH8 0xFFFFFFFFFFFFFFFF DUP2 GT ISZERO PUSH2 0xC2D JUMPI PUSH1 0x0 DUP1 REVERT JUMPDEST PUSH2 0xC39 DUP7 DUP3 DUP8 ADD PUSH2 0xB5A JUMP JUMPDEST SWAP1 SWAP5 POP SWAP3 POP PUSH2 0xC4C SWAP1 POP PUSH1 0x20 DUP6 ADD PUSH2 0xBE5 JUMP JUMPDEST SWAP1 POP SWAP3 POP SWAP3 POP SWAP3 JUMP JUMPDEST PUSH1 0x0 PUSH1 0x20 DUP3 DUP5 SUB SLT ISZERO PUSH2 0xC67 JUMPI PUSH1 0x0 DUP1 REVERT JUMPDEST PUSH2 0xC70 DUP3 PUSH2 0xBE5 JUMP JUMPDEST SWAP4 SWAP3 POP POP POP JUMP JUMPDEST PUSH1 0x0 PUSH1 0x20 DUP3 DUP5 SUB SLT ISZERO PUSH2 0xC89 JUMPI PUSH1 0x0 DUP1 REVERT JUMPDEST POP CALLDATALOAD SWAP2 SWAP1 POP JUMP JUMPDEST PUSH1 0x0 DUP1 PUSH1 0x0 DUP1 PUSH1 0x60 DUP6 DUP8 SUB SLT ISZERO PUSH2 0xCA6 JUMPI PUSH1 0x0 DUP1 REVERT JUMPDEST DUP5 CALLDATALOAD PUSH8 0xFFFFFFFFFFFFFFFF DUP2 GT ISZERO PUSH2 0xCBD JUMPI PUSH1 0x0 DUP1 REVERT JUMPDEST PUSH2 0xCC9 DUP8 DUP3 DUP9 ADD PUSH2 0xB5A JUMP JUMPDEST SWAP1 SWAP6 POP SWAP4 POP POP PUSH1 0x20 DUP6 ADD CALLDATALOAD SWAP2 POP PUSH2 0xCE2 PUSH1 0x40 DUP7 ADD PUSH2 0xBE5 JUMP JUMPDEST SWAP1 POP SWAP3 SWAP6 SWAP2 SWAP5 POP SWAP3 POP JUMP JUMPDEST DUP2 DUP4 DUP3 CALLDATACOPY PUSH1 0x0 SWAP2 ADD SWAP1 DUP2 MSTORE SWAP2 SWAP1 POP JUMP JUMPDEST PUSH4 0x4E487B71 PUSH1 0xE0 SHL PUSH1 0x0 MSTORE PUSH1 0x11 PUSH1 0x4 MSTORE PUSH1 0x24 PUSH1 0x0 REVERT JUMPDEST DUP1 DUP3 MUL DUP2 ISZERO DUP3 DUP3 DIV DUP5 EQ OR PUSH2 0x615 JUMPI PUSH2 0x615 PUSH2 0xCFD JUMP JUMPDEST PUSH1 0x0 DUP3 PUSH2 0xD47 JUMPI PUSH4 0x4E487B71 PUSH1 0xE0 SHL PUSH1 0x0 MSTORE PUSH1 0x12 PUSH1 0x4 MSTORE PUSH1 0x24 PUSH1 0x0 REVERT JUMPDEST POP DIV SWAP1 JUMP JUMPDEST DUP2 DUP2 SUB DUP2 DUP2 GT ISZERO PUSH2 0x615 JUMPI PUSH2 0x615 PUSH2 0xCFD JUMP JUMPDEST DUP2 DUP4 MSTORE DUP2 DUP2 PUSH1 0x20 DUP6 ADD CALLDATACOPY POP PUSH1 0x0 DUP3 DUP3 ADD PUSH1 0x20 SWAP1 DUP2 ADD SWAP2 SWAP1 SWAP2 MSTORE PUSH1 0x1F SWAP1 SWAP2 ADD PUSH1 0x1F NOT AND SWAP1 SWAP2 ADD ADD SWAP1 JUMP JUMPDEST PUSH1 0x1 PUSH1 0x1 PUSH1 0xA0 SHL SUB DUP5 AND DUP2 MSTORE PUSH1 0x40 PUSH1 0x20 DUP3 ADD DUP2 SWAP1 MSTORE PUSH1 0x0 SWAP1 PUSH2 0xDAD SWAP1 DUP4 ADD DUP5 DUP7 PUSH2 0xD5F JUMP JUMPDEST SWAP6 SWAP5 POP POP POP POP POP JUMP JUMPDEST PUSH1 0x0 PUSH1 0x20 DUP3 DUP5 SUB SLT ISZERO PUSH2 0xDC8 JUMPI PUSH1 0x0 DUP1 REVERT JUMPDEST POP MLOAD SWAP2 SWAP1 POP JUMP JUMPDEST PUSH1 0x60 DUP2 MSTORE PUSH1 0x0 PUSH2 0xDE3 PUSH1 0x60 DUP4 ADD DUP7 DUP9 PUSH2 0xD5F JUMP JUMPDEST PUSH1 0x20 DUP4 ADD SWAP5 SWAP1 SWAP5 MSTORE POP PUSH1 0x40 ADD MSTORE SWAP3 SWAP2 POP POP JUMP JUMPDEST PUSH1 0x40 DUP2 MSTORE PUSH1 0x0 PUSH2 0xE0A PUSH1 0x40 DUP4 ADD DUP6 DUP8 PUSH2 0xD5F JUMP JUMPDEST SWAP1 POP DUP3 PUSH1 0x20 DUP4 ADD MSTORE SWAP5 SWAP4 POP POP POP POP JUMP INVALID LOG2 PUSH5 0x6970667358 0x22 SLT KECCAK256 0xAC PUSH14 0x58D078326F7F87D4FB1B89890C8F 0xEF 0xBF 0xAB 0xAC PREVRANDAO 0xFB 0xF9 0x25 0x4B CHAINID 0xC0 SWAP14 GT 0x4D PUSH28 0x764736F6C6343000814003300000000000000000000000000000000 "},"methodIdentifiers":{"buyCourse(string)":"298f3267","certificate()":"2dbf7b98","courseInfo(string)":"87a90f93","createCourse(string,uint256,address)":"e834fff2","feeRecipient()":"46904840","hasPurchased(string,address)":"2dc6a5b8","owner()":"8da5cb5b","platformFeeBps()":"22dcd13e","renounceOwnership()":"715018a6","setCertificate(address)":"c2489f18","setFeeRecipient(address)":"e74b981b","setPlatformFeeBps(uint256)":"c580c942","transferOwnership(address)":"f2fde38b","ydToken()":"b9c5c022"}}}}}